:100000000C9451010C9482010C9482010C94820195
:100010000C9482010C9482010C9482010C94820154
:100020000C9482010C94430B0C9482010C94820179
:100030000C9482010C9482010C9482010C94820134
:100040000C9482010C9482010C9482010C94820124
:100050000C9482010C9482010C9482010C94750919
:100060000C9482010C94E9090C94BF090C94820150
:100070000C9482010C9482010C9482010C948201F4
:100080000C9482010C9482010C9482010C948201E4
:100090000C9482010C9482010C9482010C941F0A2E
:1000A0000C9482010C9482010C9482010C948201C4
:1000B0000C9482010C9482010C9482010C948201B4
:1000C0000C9482010C9482010C9482010C948201A4
:1000D0000C9482010C9482010C9482010C94820194
:1000E0000C9482010C9468020C94D5060C94C50102
:1000F0000C9400020C94EA010C94D3010C9420059A
:100100000C94F2010C94F8010C94B8080C940502BC
:100110000C9442050C94A5080C947F060C94A20B39
:100120000C94FC010C940A020C947A050C9434058E
:100130000C94A8020C9437020C94EE010C94060265
:100140000C94A1060C947E060C94E2040C94E40436
:100150000C94DA010C94CB010C94D7010C94C705D4
:100160000C94E4010C94E3040C94A8060C948E0601
:100170000C9411050C94CF010C94B9080C94E00177
:1001800000002100240027002A002D003000330049
:1001900001010000040107010A01000022002500FE
:1001A00028002B002E003100340002010000050160
:1001B00008010B01000020002300260029002C006C
:1001C0002F003200000100000301060109010505AE
:1001D0000505070508080808020202020A0A0808BD
:1001E00004040404010101010101010103030303EB
:1001F00003030303040707070C0C0C0C0C0C0C0C7A
:100200000202020206060606060606060B0B0B0B8A
:100210000B0B0B0B010210202008081020401020AF
:1002200040800201020108040201010204081020BA
:1002300040808040201008040201800402018040B8
:100240002010080402010804020101020408102021
:100250004080010204081020408000000A0B0209BF
:100260000C0D0E0807030401000000000000000050
:10027000000000000000000000000000000000007E
:10028000000000000000121110000000000000003B
:10029000000000000000000000000000000000005E
:1002A000A20B11241FBECFEFD1E2DEBFCDBF00E015
:1002B0000CBF12E0A0E0B2E0EEEFF5E200E00BBF11
:1002C00002C007900D92A23CB107D9F724E0A2EC3E
:1002D000B2E001C01D92AA3CB207E1F711E0C1E50E
:1002E000D1E000E006C021970109802FFE010E94A5
:1002F0002B11C035D10780E00807A9F70E94620CD6
:100300000C94FD120C94000096E0899FD0011124FA
:10031000A35BBB4F90967C936E935F9791E0919611
:100320009C939197E091BA04F091BB049091B90429
:10033000992339F0309751F0811108C080916904F8
:100340001994309719F05C968C91FACF08958150EA
:10035000823108F05AC0E82FF0E08827ED54FE4FB4
:100360008F4F0C942B11D301D701C501CB01CF01C5
:100370000502DA01E001E401EA01EE01F201F8010F
:10038000FC010502000206020A02809180008F77BC
:10039000809380000895809180008F7DF9CF8091B7
:1003A0008000877FF5CF84B58F7784BD089584B5AD
:1003B0008F7DFBCF8091B0008F778093B000089540
:1003C0008091B0008F7DF9CF809190008F778093DE
:1003D00090000895809190008F7DF9CF80919000DA
:1003E000877FF5CF8091A0008F778093A00008953C
:1003F0008091A0008F7DF9CF8091A000877FF5CFFD
:10040000809120018F7780932001089580912001B1
:100410008F7DF9CF80912001877FF5CFCF93DF9338
:10042000282F30E0F901E65AFD4F8491F901EC5E86
:10043000FD4FD491F901E253FE4FC491CC23A1F0BA
:1004400081110E94A701EC2FF0E0EE0FFF1FEC548A
:10045000FE4FA591B491EC91ED2381E090E009F479
:1004600080E0DF91CF91089580E090E0FACF862F71
:100470000C940E021F93CF93DF93282F30E0F901E5
:10048000E65AFD4F8491F901EC5EFD4FD491F901DC
:10049000E253FE4FC491CC23A9F0162F81110E9484
:1004A000A701EC2FF0E0EE0FFF1FE656FE4FA591DF
:1004B000B4918FB7F894EC91111108C0D095DE2358
:1004C000DC938FBFDF91CF911F910895DE2BF8CF82
:1004D000862F642F0C943A02CF93DF9390E0FC01B7
:1004E000EC5EFD4F249182539E4FFC018491882342
:1004F000C9F090E0880F991FFC01E058FE4FA591CC
:10050000B491FC01E656FE4FC591D49161110DC026
:100510009FB7F8948C91209582238C93888128230F
:1005200028839FBFDF91CF910895623051F49FB728
:10053000F8943C91822F809583238C93E8812E2B15
:10054000EFCF8FB7F894EC912E2B2C938FBFEACF7F
:10055000862F642F0C946C02789484B5826084BDDD
:1005600084B5816084BD85B5826085BD85B58160B7
:1005700085BDEEE6F0E0808181608083E1E8F0E017
:100580001082808182608083808181608083E0E846
:10059000F0E0808181608083E1EBF0E08081846025
:1005A0008083E0EBF0E0808181608083E1E9F0E02E
:1005B000808182608083808181608083E0E9F0E0D7
:1005C000808181608083E1EAF0E0808182608083C5
:1005D000808181608083E0EAF0E0808181608083B7
:1005E000E1E2F1E0808182608083808181608083AC
:1005F000E0E2F1E0808181608083EAE7F0E08081E1
:100600008460808380818260808380818160808338
:100610008081806880831092C10008953FB7F8946C
:100620008091A0039091A103A091A203B091A30394
:1006300026B5A89B05C02F3F19F00196A11DB11D3D
:100640003FBFBA2FA92F982F8827BC01CD01620F79
:10065000711D811D911D42E0660F771F881F991F34
:100660004A95D1F708952FB7F89460919C03709143
:100670009D0380919E0390919F032FBF08950F9338
:100680001F93CF93DF93C82FD62F86E0C89FF0012A
:100690001124E35BFB4F11A2878D90A1813091055E
:1006A000F1F058F082309105F1F1039709F440C060
:1006B000DF91CF911F910F9108956623C9F361E0F7
:1006C00070E08C2F0E9484010E9433036093A50484
:1006D0007093A6048093A7049093A804E9CF0E9486
:1006E00033030091A5041091A6042091A704309132
:1006F000A804AB01BC01401B510B620B730B809132
:10070000B7049091B804B0E0A0E084179507A6075D
:10071000B70748F462E070E08C2FDF91CF911F9112
:100720000F910C94840163E070E0D111C1CFF4CF3C
:1007300070E060E0F1CF6F927F928F929F92AF92C4
:10074000BF92CF92DF92EF92FF920F931F93CF93BE
:10075000DF9381E08093B9040E9433030091A904E0
:100760001091AA042091AB043091AC04AB01BC0100
:10077000401B510B620B730B8091B5049091B60432
:10078000B0E0A0E084179507A607B70708F014C1EA
:10079000C0E08091B304C81760F4E091AF04F09119
:1007A000B004EC0FF11D62E080810E946C02CF5F0B
:1007B000F0CF712C812C912C540183948091B4043E
:1007C000781608F05FC0072D10E0E091B104F091B9
:1007D000B204E00FF11F61E080810E946C02E091A1
:1007E000B104F091B204E00FF11F60E080810E943B
:1007F0003A02D501C401072C04C0880F991FAA1F13
:10080000BB1F0A94D2F76C017C01E094F094612C38
:100810008091B3046816F8F4C62DD0E0E091AF04DF
:10082000F091B004EC0FFD1F80810E940E0224960F
:10083000CC0FDD1FC35BDB4F892B41F4888199818D
:100840008C299D29998388836394E2CF888199813B
:100850008E219F21F7CFE091B104F091B204E00F17
:10086000F11F61E080810E943A028091B104909171
:10087000B204080F191F60E0F80180810E946C0229
:1008800073949CCFCDE4D4E0FE018FEF9FEF278DD2
:1008900030A1232B21F4148E968F858F11A23696CA
:1008A00024E0E938F20799F7F12C96E0D92E8091EF
:1008B000B304F81608F050C0E12C0F2D10E0000F23
:1008C000111F0B5A1B4F2091B404E21608F042C0CE
:1008D000F801608171810E2C02C0769567950A94AB
:1008E000E2F7F29E900111242E0D311DEDE4F4E0AB
:1008F00080E0458D568D2417350709F461C08F5F60
:1009000036968A30B1F760FF23C0EDE4F4E090E062
:1009100080E0448D411117C0E091AD04F091AE0428
:10092000E20FF31F4081D89EF001D99EF00D1124F3
:10093000E35BFB4F448F368F258F10A2178E61E04B
:100940000E943F0305C0019636968A30910509F74B
:10095000E394B9CFF394ABCF10E089A18111182FA4
:100960002696F4E0C938DF07C1F70E94330360938D
:10097000A9047093AA048093AB049093AC04112350
:10098000D9F080916E048823B9F080916C04909125
:100990006D04019789F480916904DF91CF911F91D3
:1009A0000F91FF90EF90DF90CF90BF90AF909F900E
:1009B0008F907F906F9008951092B90480E0EDCFF2
:1009C0006170BECF08950895AF92BF92CF92DF922B
:1009D000EF92FF920F931F93CF93DF936C017B01F4
:1009E0008B01040F151FEB015E01AE18BF08C01785
:1009F000D10759F06991D601ED91FC910190F081F8
:100A0000E02DC6011995892B79F7C501DF91CF91AA
:100A10001F910F91FF90EF90DF90CF90BF90AF901C
:100A20000895FC01538D448D252F30E0842F90E0F4
:100A3000821B930B541710F0CF96089501970895D9
:100A4000FC01918D828D981761F0A28DAE0FBF2FA2
:100A5000B11D5D968C91928D9F5F9F73928F90E0F8
:100A600008958FEF9FEF0895FC01918D828D981767
:100A700031F0828DE80FF11D858D90E008958FEFA4
:100A80009FEF0895FC01918D228D892F90E0805C6D
:100A90009F4F821B91098F739927089584EA93E0F1
:100AA0000E94420521E0892B09F420E0822F08955D
:100AB000FC01A48DA80FB92FB11DA35ABF4F2C91D3
:100AC000848D90E001968F739927848FA689B789CA
:100AD0002C93A089B1898C91837080648C93938DC1
:100AE000848D981306C00288F389E02D80818F7D64
:100AF00080830895EF92FF920F931F93CF93DF931C
:100B0000EC0181E0888F9B8D8C8D98131AC0E88949
:100B1000F989808185FF15C09FB7F894EE89FF8918
:100B20006083E889F98980818370806480839FBFB6
:100B300081E090E0DF91CF911F910F91FF90EF90B6
:100B40000895F62E0B8D10E00F5F1F4F0F731127C6
:100B5000E02E8C8D8E110CC00FB607FCFACFE88901
:100B6000F989808185FFF5CFCE010E945805F1CF2C
:100B7000EB8DEC0FFD2FF11DE35AFF4FF0829FB775
:100B8000F8940B8FEA89FB8980818062CFCFCF9365
:100B9000DF93EC01888D8823B9F0AA89BB89E889A5
:100BA000F9898C9185FD03C0808186FD0DC00FB64B
:100BB00007FCF7CF8C9185FFF2CF808185FFEDCFC9
:100BC000CE010E945805E9CFDF91CF91089580E0D2
:100BD00090E0892B29F00E944E0581110E940000AF
:100BE00080E090E0892B49F080E090E0892B29F0AB
:100BF0000E94000081110E94000080E090E0892B9B
:100C000049F080E090E0892B29F00E9400008111DA
:100C10000E94000080E090E0892B49F080E090E0A5
:100C2000892B29F00E94000081110C940000089586
:100C300020912A03260F3327331F21323105ECF48C
:100C400020914E03FC0190E080E0243069F082E0C6
:100C50000895A0912A032191AC01465F5C4FA40F37
:100C6000B52FB11D2C930196861798F380912A0316
:100C7000680F60932A0380E0089581E00895109240
:100C80004E0381E08093500310924F0361E084E1B2
:100C90000E943A0261E085E10E943A02E9EBF0E04D
:100CA00080818E7F808380818D7F808388E48093A4
:100CB000B80085E48093BC000895CF93DF9391E062
:100CC000909309038823B9F0C091B800D091BA007D
:100CD0008091BC008A7B8093BC0060E084E10E942C
:100CE0003A0260E085E10E943A020E943F06D093FA
:100CF000BA00C093B800DF91CF9108950895E091B4
:100D00007B0380917A03E81730F4F0E0EC51FD4F5B
:100D1000808190E008958FEF9FEF089590917B037D
:100D200080917A032FEF3FEF981748F4E92FF0E016
:100D3000EC51FD4F208130E09F5F90937B03C90110
:100D4000089580917A0390917B03891B990B0895F4
:100D5000CF92DF92EF92FF920F931F93CF93DF9387
:100D60007C01CB018A012091E302222389F0EB016F
:100D70006B01C40ED51ECC15DD0569F06991D70154
:100D8000ED91FC910190F081E02DC7011995F3CF11
:100D9000642F0E941806C801DF91CF911F910F9117
:100DA000FF90EF90DF90CF900895CF93DF931F9245
:100DB000CDB7DEB769832091E3022223F9F02091B9
:100DC0007803203258F021E030E0FC0133832283A5
:100DD00090E080E00F90DF91CF91089580917903AA
:100DE000E82FF0E0ED53FD4F998190838F5F809362
:100DF00079038093780381E090E0ECCF61E0CE014D
:100E000001960E941806F7CFAC0181E090E0909324
:100E1000890080938800B19A109285001092840016
:100E200090918100926090938100909181009A7FCF
:100E30009093810030E020E04217530731F0B19BDE
:100E4000FBCF2F5F3F4FB19AF7CF80918100887F12
:100E5000809381000895CF92DF92EF92FF920F93DB
:100E60001F93CF93DF93FC01C48181E08093E30261
:100E7000C093C202109279031092780381E494E047
:100E80000E94D506D0917803D13208F092C00E941A
:100E90000E036B017C0180914E03811165C082E0DD
:100EA00080934E0381E0809350038FEF80934D0336
:100EB00010927203D0937103E3ECF2E0A1E5B3E08A
:100EC00080E0D81385C01092730380917303CC0F18
:100ED000C82BC093730380914F03813009F07CC00D
:100EE00010924F030E940E036B017C0180917303EB
:100EF0008093BB008091050390910603A0910703A6
:100F0000B0910803892B8A2B8B2B99F00E940E033A
:100F10000091050310910603209107033091080307
:100F20006C197D098E099F090617170728073907CD
:100F3000E0F18091BC0083FDD9CF85EC8093BC00AB
:100F40000E940E036B017C0180914E03823009F4F4
:100F500045C080914D038F3F61F180914D038032F8
:100F600041F180914D0325C08091050390910603C6
:100F7000A0910703B0910803892B8A2B8B2B09F4CE
:100F80008ACF0E940E030091050310910603209161
:100F90000703309108036C197D098E099F09061714
:100FA00017072807390708F076CF809104030E94BD
:100FB0005D0610927903109278031092E302DF919C
:100FC000CF911F910F91FF90EF90DF90CF900895F8
:100FD00091919D938F5F75CF85EEB0CF8091050382
:100FE00090910603A0910703B0910803892B8A2BE7
:100FF0008B2B09F4A9CF0E940E03009105031091D9
:10100000060320910703309108036C197D098E09AE
:101010009F09061717072807390708F095CFC5CF8E
:101020000F931F93CF93DF93EC01042F6B8711E095
:1010300019878885880F9F819460892B2A8598E07D
:10104000299F90011124822B607F682BCE010E9482
:101050002B0781E090E00E94040719866885660FDF
:101060008A8528E0829FC0011124682B8F81682B1C
:101070008B85807F682BCE010E942B07011135C024
:1010800085E290E00E94040719878F81846068855B
:10109000660F682B8A8528E0829FC0011124682B87
:1010A0008B8520E1829FC0011124682BCE010E9414
:1010B0002B0781E090E00E94040719866885660F7F
:1010C0008A8528E0829FC0011124682B8F81682BBC
:1010D0008B8520E1829FC0011124682BCE01DF9116
:1010E000CF911F910F910C942B07DF91CF911F91FE
:1010F0000F910895ECEBF4E01782108640E061E078
:10110000CF010E9410088EE096E00C940407109224
:10111000C3041092C4049091C104891708F4982F55
:101120008091C204861708F460E0E62FF0E0E85EE4
:10113000FD4F6081690F606840E08CEB94E00E9495
:10114000100885E290E00C94040721E0FC0127835D
:10115000108640E00E94100889E290E00E94040797
:1011600081E090E00895682F8CEB94E00C94A50842
:10117000089590E080E00895FC0101900020E9F7D7
:101180003197AF01481B590BBC018CEB94E00C94D8
:10119000E4048F929F92AF92BF920F931F93CF93CD
:1011A000DF93CDB7DEB7A1970FB6F894DEBF0FBEC1
:1011B000CDBF19A2423008F44AE08E010F5D1F4FE7
:1011C000842E912CB12CA12CA50194010E9409110F
:1011D000E62FB901CA01EA30F4F4E05DD801EE93DC
:1011E0008D01232B242B252B79F790E080E010979D
:1011F00019F0CD010E94BC08A1960FB6F894DEBF8D
:101200000FBECDBFDF91CF911F910F91BF90AF90D7
:101210009F908F900895E95CE1CF0C94BC08CF9229
:10122000DF92EF92FF92CF93DF936C01990FEE085C
:10123000FF08F7FE17C08DE20E94B308EC01662795
:101240007727CB016C197D098E099F094AE00E941E
:10125000C9088C0F9D1FDF91CF91FF90EF90DF9019
:10126000CF9008954AE0C701B601DF91CF91FF907A
:10127000EF90DF90CF900C94C90885ED8093BC006F
:101280008091050390910603A0910703B091080394
:101290000796A11DB11D23E0B695A7959795879553
:1012A0002A95D1F72091BC0024FD03C010924E0373
:1012B00008954091050350910603609107037091D2
:1012C0000803452B462B472B69F30097A105B10571
:1012D00041F025E32A95F1F700000197A109B10932
:1012E000E1CF809104030C945D061F920F920FB61C
:1012F0000F9211242F933F938F939F93AF93BF939C
:1013000080919C0390919D03A0919E03B0919F03B7
:1013100030919B0323E0230F2D3758F50196A11D33
:10132000B11D20939B0380939C0390939D03A093F6
:101330009E03B0939F038091A0039091A103A0917D
:10134000A203B091A3030196A11DB11D8093A00338
:101350009093A103A093A203B093A303BF91AF9175
:101360009F918F913F912F910F900FBE0F901F90E3
:10137000189526E8230F0296A11DB11DD2CF1F920A
:101380000F920FB60F9211240BB60F922F933F932B
:101390004F935F936F937F938F939F93AF93BF937D
:1013A000EF93FF9384EA93E00E945805FF91EF9139
:1013B000BF91AF919F918F917F916F915F914F916D
:1013C0003F912F910F900BBE0F900FBE0F901F906B
:1013D00018951F920F920FB60F9211240BB60F9211
:1013E0002F938F939F93EF93FF93E091B403F0912A
:1013F000B5038081E091BA03F091BB0382FD1DC06B
:1014000090818091BD038F5F8F732091BE038217FF
:1014100041F0E091BD03F0E0EC55FC4F958F8093D7
:10142000BD03FF91EF919F918F912F910F900BBE74
:101430000F900FBE0F901F9018958081F2CF1F92D2
:101440000F920FB60F9211240BB60F922F933F936A
:101450004F935F936F937F938F939F93AF93BF93BC
:10146000EF93FF938091B900887F803609F44DC0D7
:1014700008F040C0883209F4A9C028F5803109F489
:101480009DC0C8F4882309F4FBC0883009F496C0D5
:10149000FF91EF91BF91AF919F918F917F916F914C
:1014A0005F914F913F912F910F900BBE0F900FBE08
:1014B0000F901F901895883109F488C0803241F749
:1014C00080934D0314C0803409F49DC040F48033F0
:1014D000B9F38833E9F680934D0385ECB0C08035CD
:1014E00009F485C0883509F496C0883489F60E94CD
:1014F0003D09CECF883909F48CC038F5883729F0FA
:1015000050F4883611F0803719F683E080934E034B
:1015100010924C0357C0883809F47BC0803919F009
:10152000803809F0B5CF80914C03803208F071C04B
:10153000E0914C0381E08E0F80934C038091BB00BF
:10154000F0E0E45DFC4F80833DC0803B39F0E0F487
:10155000803A09F479C0883A09F09ACF84E0809300
:101560004E0310922B0310922A03E0917603F09120
:101570007703199580912A0381110FC081E0809330
:101580002A0310920A0309C0803C09F4A6CF883CC4
:1015900009F4A3CF883B09F07BCFE0912B0381E0D6
:1015A0008E0F80932B03F0E0E65FFC4F80818093E9
:1015B000BB0090912B0380912A0329C08091730373
:1015C0008093BB0085EC8093BC0062CF9091720346
:1015D00080917103981758F5E091720381E08E0FA6
:1015E00080937203F0E0EF5AFC4F8081E9CFE091E5
:1015F000720381E08E0F809372038091BB00F0E054
:10160000EF5AFC4F80839091720380917103981779
:10161000C8F285E8D8CFE091720381E08E0F809305
:1016200072038091BB00F0E0EF5AFC4F8083809101
:10163000500381115CCF81E080934F0384EA809353
:10164000BC0010924E0324CF85EC8093BC00109216
:101650004E0380914C03803230F4E0914C03F0E073
:10166000E45DFC4F108260914C0370E0E0917403E4
:10167000F09175038CE293E0199510924C0308CF1A
:1016800010924D0334CF1F920F920FB60F92112478
:101690002F933F938F939F9380917C0390917D0331
:1016A000892B79F481E090E090937D0380937C0313
:1016B0009F918F913F912F910F900FBE0F901F9090
:1016C000189580917C0390917D038230910581F77C
:1016D0002091970330919803232BC9F481E090E087
:1016E0009093980380939703109296031092890326
:1016F000109295031092940383E090E090937D0301
:1017000080937C0310929A0310929903D1CF209179
:101710009703309198032130310549F49093980351
:10172000809397031092960310928903E5CF8091DE
:101730009703909198030297F9F6109298031092EC
:101740009703F0CF1092A7031092A60388EE93E0C0
:10175000A0E0B0E08093A8039093A903A093AA030C
:10176000B093AB0320E232E03093A5032093A403AF
:1017700025EC30E03093B1032093B00324EC30E04B
:101780003093B3032093B20320EC30E03093B503E1
:101790002093B40321EC30E03093B7032093B603D9
:1017A00022EC30E03093B9032093B80326EC30E00C
:1017B0003093BB032093BA031092BD031092BE0373
:1017C0001092BF031092C00310924404109243047D
:1017D0008093450490934604A0934704B093480433
:1017E00082E392E090934204809341041092BF04FC
:1017F0001092BE048EE492E09093BD048093BC04EA
:1018000087E28093C0048FE08093C10481E08093DD
:10181000C2041092C3041092C4041092C504109222
:10182000C6041092C7041092C8041092C904109202
:101830004F0410925304109252041092540484E402
:1018400092E090934E0480934D04E9E6F4E0108218
:10185000148213821582369684E0E53AF807B9F7C8
:1018600084E092E09093B0048093AF0480E092E033
:101870009093B2048093B10484E08093B304809386
:10188000B40488E092E09093AE048093AD048AE0C3
:1018900090E09093B6048093B50484EF91E0909328
:1018A000B8048093B7041092BB041092BA0410924B
:1018B000A9041092AA041092AB041092AC041092E6
:1018C000B90408950E94AC02E091B403F091B5030D
:1018D00082E08083E091B003F091B1031082E09147
:1018E000B203F091B3038FEC80831092BC03E091BC
:1018F000B803F091B90386E08083E091B603F091DC
:10190000B703808180618083E091B603F091B703D3
:10191000808188608083E091B603F091B703808175
:1019200080688083E091B603F091B70380818F7D5A
:10193000808381B1876081B90E94AC0210927B03E1
:1019400010927A0310927903109278030E943F0656
:1019500082EE94E0909377038093760383EE94E095
:10196000909375038093740360E08CEB94E00E9485
:101970002B0782E390E00E9404071092C3041092A8
:10198000C4040E940E034B015C0122E3C22ED12C41
:10199000E12CF12C0E940E03681979098A099B0930
:1019A000683E734081059105A8F321E0C21AD10871
:1019B000E108F10838EE830E33E0931EA11CB11C40
:1019C000C114D104E104F10429F741E060E38CEB98
:1019D00094E00E94100888E690E10E94040741E02C
:1019E00060E38CEB94E00E94100886E990E00E948E
:1019F000040741E060E38CEB94E00E94100885E26C
:101A000090E00E94040741E060E28CEB94E00E94C9
:101A1000100885E290E00E94040740E068E28CEB49
:101A200094E00E94100885E290E00E940407109262
:101A3000C3041092C4046091C8046B7F6093C8040F
:101A4000686040E08CEB94E00E94100885E290E032
:101A50000E9404070E947A081092C3041092C404E2
:101A60006091C904862F82608093C904666040E05B
:101A70008CEB94E00E94100885E290E00E9404073D
:101A80001092C3041092C4046091C804862F84602D
:101A90008093C8046C6040E08CEB94E00E941008D6
:101AA00085E290E00E94040781E08093C60468E02C
:101AB0008CEB94E00E942B07809180008C7F8093B8
:101AC00080008091810088608093810080918100F6
:101AD0008F7E8093810023982B9A8091680081608B
:101AE0008093680080916B00886080936B00809188
:101AF0000A01806280930A0180E480937C008091D7
:101B00007C008F7780937C0080917A00876080933F
:101B10007A0080917A00806880937A00819888E7C3
:101B2000482E8CEE582E66246A94762C98EE292E38
:101B300093E0392E02E010E08091990390919A038E
:101B4000892B99F4809197039091980381309105A6
:101B500009F44EC108F43DC1029709F45EC181E069
:101B600090E090939A0380939903809197039091CA
:101B70009803019709F036C20E949B03F82E882330
:101B8000E1F193E2891709F462C12AE28217A9F10F
:101B90008FEB8F0D843088F1809196038823A1F01C
:101BA00060E080E00E9487088DE592E00E940D09C8
:101BB00061E080E00E94870887E692E00E940D09BC
:101BC0001092950310929403C0919203D0919303C5
:101BD00061E08C2F865F0E948708FE01E057FC4F72
:101BE000F0828F2D0E94B3082196C230D1050CF0EF
:101BF00029C1D0939303C0939203809196038823C5
:101C000009F4D9C080917B00877F80937B0081E4B9
:101C100080937C0080917A00806480937A00809128
:101C20007A0086FDFCCF8091780060917900762F54
:101C3000682F072E000C880B990B0E94D61120E00C
:101C400030E040EA50E40E948B1220E030E048ECA3
:101C500052E40E948B1220E030E040E85AE30E94F8
:101C60008B1260938A0370938B0380938C03909301
:101C70008D0361E080E00E94870882E992E00E9483
:101C80000D09C0908A03D0908B03E0908C03F090F4
:101C90008D03A7019601C701B6010E94F81288239F
:101CA00009F407C180EA92E00E94BC089FEF23ED8F
:101CB00030E3915020403040E1F700C000006091D7
:101CC0008E0370918F03072E000C880B990B0E94D6
:101CD000D6116B017C0180908A0390908B03A090B9
:101CE0008C03B0908D03A50194010E94A011C091B6
:101CF0009403D091950387FF6AC12196D0939503F1
:101D0000C0939403809194039091950302970CF4EF
:101D100052C080917C00807F80937C0080917C0009
:101D200080937C0080917A00806480937A00809117
:101D30007A0086FDFCCF80917800909179008091A7
:101D40000B018F7D80930B014FEF53E264EF415005
:101D500050406040E1F700C0000080910B018062BC
:101D600080930B018FEF93EC29E08150904020404D
:101D7000E1F700C0000080910B018F7D80930B0183
:101D80003FEF43E254EF315040405040E1F700C094
:101D9000000080910B01806280930B016FEF83EC58
:101DA00099E0615080409040E1F700C0000010923F
:101DB00095031092940380917C0390917D03813070
:101DC000910509F414C2039709F41AC20E94E705A9
:101DD000B3CE109A82B1897F82B90E947A0860E0FE
:101DE00080E00E94870886E592E00E940D09B7CE48
:101DF000119A82B18A7F82B90E947A0860E080E0FD
:101E00000E9487088DE592E00E940D0961E080E064
:101E10000E94870887E692E0E8CF129A82B18C7F11
:101E200082B90E947A0860E080E00E94870882E719
:101E300092E00E940D0961E080E00E9487088DE732
:101E400092E0D3CF1092930310929203D6CE81E00A
:101E500080939603E0E9F3E030E020E08191082EE2
:101E6000000C990BC0978A30910550F46AE0629F8C
:101E7000A001639F500D11249C01240F351FEECF4C
:101E800030938F0320938E030E947A0860E080E0F5
:101E90000E94870887E892E00E940D0980918E03D6
:101EA00090918F030E940F098FE892E00E940D0924
:101EB000A4CE46015701E894B7F82FEF3FEF4FE764
:101EC0005FE7C501B4010E94F81281110DC02FEF28
:101ED0003FEF4FE75FE7C501B4010E94A01118165C
:101EE0001CF484EA92E0E0CE2FEF3FEF4FE75FE48F
:101EF000C701B6010E94861218161CF488EA92E007
:101F0000D3CE2FEF3FEF4FE75FECC701B6010E9442
:101F1000A01187FDF3CF20E030E0A901C701B60191
:101F20000E94A01187FF07C08DE20E94B308F7FA54
:101F3000F094F7F8F0942AE037ED43EA5BE3C70149
:101F4000B6010E9434114B015C010E94A5116B0186
:101F50007C010E94D4119B01AC01C501B4010E9417
:101F600033114B015C014AE0C701B6010E94C90868
:101F70008EE20E94B30820E030E040E251E4C50167
:101F8000B4010E948B124B015C010E94A5116B01F0
:101F9000F12CE12C4AE0C701B6010E94C908C70133
:101FA000B6010E94D4119B01AC01C501B4010E948D
:101FB000331120E030E040E251E40E948B120E9495
:101FC000A51190E080E04AE00E94C9086FCEA5010B
:101FD0009401C701B6010E94861218160CF092CE29
:101FE00021978CCE8091970390919803029709F0E6
:101FF000E2CE0E949B03F82E882309F442C023E21C
:10200000821709F4B8C03AE28317D9F18FEB8F0D2C
:102010008430B8F1809189038823D1F060E080E0BA
:102020000E94870882E792E00E940D0961E080E04B
:102030000E9487088DE792E00E940D094FE952E067
:1020400040938903109285031092840310928903B0
:10205000C0918403D091850361E08C2F865F0E943C
:102060008708FE01EA57FC4FF0828F2D0E94B308CB
:102070002196C330D1050CF079C0D0938503C0936D
:10208000840380918903882309F495CE0E94330349
:10209000C0907E03D0907F03E0908003F090810396
:1020A000A30192012C193D094E095F0969017A01CA
:1020B000AB01BC014C0D5D1D6E1D7F1D2091820387
:1020C00030918303229DC001239D900D329D900D80
:1020D0001124092E000CAA0BBB0B84179507A60729
:1020E000B70708F068CE80910B018F7D80930B01BC
:1020F0003FEF43E254EF315040405040E1F700C021
:10210000000080910B01806280930B016FEF83ECE4
:1021100099E0615080409040E1F700C0000080915C
:102120000B018F7D80930B012FEF33E244EF2150A1
:1021300030404040E1F700C0000080910B01806218
:1021400080930B015FEF63EC89E051506040804069
:10215000E1F700C000000E94330360937E03709398
:102160007F03809380039093810325CE1092850393
:102170001092840386CF81E080938903E6E8F3E040
:1021800030E020E08191082E000C990BC0978A3036
:10219000910550F46AE0629FA001639F500D1124E5
:1021A0009C01240F351FEECF3093830320938203CD
:1021B0000E94330360937E0370937F0380938003B8
:1021C000909381030E947A0860E080E00E94870873
:1021D0008CEA92E00E940D09809182039091830322
:1021E0000E940F098CEB92E00E940D094ACF88EE05
:1021F00093E00E94040710937D0300937C03E6CDD7
:1022000088EE93E00E94040710927D0310927C03F5
:10221000DDCDA1E21A2EAA1BBB1BFD010DC0AA1F1A
:10222000BB1FEE1FFF1FA217B307E407F50720F03F
:10223000A21BB30BE40BF50B661F771F881F991FBA
:102240001A9469F760957095809590959B01AC0103
:10225000BD01CF010895EE0FFF1F881F8BBF0790B0
:10226000F691E02D19945058BB27AA270E944B11D4
:102270000C944C120E943E1238F00E94451220F03D
:1022800039F49F3F19F426F40C943B120EF4E095B8
:10229000E7FB0C943512E92F0E945D1258F3BA1730
:1022A000620773078407950720F079F4A6F50C946C
:1022B0007F120EF4E0950B2EBA2FA02D0B01B90161
:1022C00090010C01CA01A0011124FF27591B99F0AC
:1022D000593F50F4503E68F11A16F040A22F232FB8
:1022E000342F4427585FF3CF469537952795A79508
:1022F000F0405395C9F77EF41F16BA0B620B730BAF
:10230000840BBAF09150A1F0FF0FBB1F661F771F1F
:10231000881FC2F70EC0BA0F621F731F841F48F4D4
:10232000879577956795B795F7959E3F08F0B0CF5D
:102330009395880F08F09927EE0F97958795089544
:102340000E94111208F481E008950E94651288F03D
:102350009F5798F0B92F9927B751B0F0E1F0660F69
:10236000771F881F991F1AF0BA95C9F714C0B130AA
:1023700091F00E947F12B1E008950C947F12672FB4
:10238000782F8827B85F39F0B93FCCF386957795D9
:102390006795B395D9F73EF49095809570956195C2
:1023A0007F4F8F4F9F4F0895E89409C097FB3EF4ED
:1023B00090958095709561957F4F8F4F9F4F992392
:1023C000A9F0F92F96E9BB279395F6958795779510
:1023D0006795B795F111F8CFFAF4BB0F11F460FFD0
:1023E0001BC06F5F7F4F8F4F9F4F16C0882311F028
:1023F00096E911C0772321F09EE8872F762F05C03C
:10240000662371F096E8862F70E060E02AF09A95D6
:10241000660F771F881FDAF7880F9695879597F9CB
:102420000895990F0008550FAA0BE0E8FEEF161665
:102430001706E807F907C0F012161306E407F507B8
:1024400098F0621B730B840B950B39F40A2661F02C
:10245000232B242B252B21F408950A2609F4A140CF
:10246000A6958FEF811D811D089597F99F6780E8DC
:1024700070E060E008959FEF80EC089500240A94D6
:102480001616170618060906089500240A9412164F
:102490001306140605060895092E0394000C11F482
:1024A000882352F0BB0F40F4BF2B11F460FF04C02F
:1024B0006F5F7F4F8F4F9F4F089557FD9058440F88
:1024C000551F59F05F3F71F04795880F97FB991F93
:1024D00061F09F3F79F08795089512161306140650
:1024E000551FF2CF4695F1DF08C0161617061806DD
:1024F000991FF1CF86957105610508940895E894B8
:10250000BB2766277727CB0197F908950E94111200
:1025100008F48FEF08950E949E120C944C120E94B2
:102520003E1238F00E94451220F0952311F00C94D1
:1025300035120C943B1211240C9480120E945D12EF
:1025400070F3959FC1F3950F50E0551F629FF00106
:10255000729FBB27F00DB11D639FAA27F00DB11D1F
:10256000AA1F649F6627B00DA11D661F829F2227A8
:10257000B00DA11D621F739FB00DA11D621F839F2F
:10258000A00D611D221F749F3327A00D611D231F05
:10259000849F600D211D822F762F6A2F11249F5753
:1025A00050409AF0F1F088234AF0EE0FFF1FBB1F56
:1025B000661F771F881F91505040A9F79E3F510515
:1025C00080F00C9435120C9480125F3FE4F3983E37
:1025D000D4F3869577956795B795F795E7959F5FBF
:1025E000C1F7FE2B880F911D9695879597F9089551
:0E25F0000E941112880B990B0895F894FFCFEA
:1025FE00222324251E1F2021313233413435364209
:10260E00373839432A302344004014540000000068
:10261E007A05E4041105C7054205200534050000BE
:10262E000000D506A806B9087E06A1068E067F060E
:10263E0000000000A8026802370200000000A50892
:10264E00E404B908B8086E6F726D616C0061757440
:10265E006F2D74656D70004F6E2061742860432974
:10266E003A006175746F2D7363686564004F6E2058
:10267E0061667465723A006F6E2061743A20006074
:10268E00430074656D70657261747572653A2000F1
:10269E006E616E00696E66006F7666006175746FAE
:1026AE00206F6E2061667465723A2000206D696E2F
:0226BE0000001A
:00000001FF
